:020000040000FA
:020000001128C5
:040002000034003492
:080008000528A000030EA10071
:10001000831203138C1A1721210E8300A00E200EC9
:10002000090083160313FF308500860188018901CA
:100030008717071302309F008312031309118312DD
:1000400003133D200C21A701A601AC01AB01AA01BD
:100050004720831603138C16831203138B170B1779
:10006000DF20EE2096302D02031837283A2864301E
:10007000A6003A28A72062203028842038306D203E
:100080000C306D2006306D2001306D20080080306E
:100090006D204330762075307620723076207430B3
:1000A00076203A307620C0306D204C307620693092
:1000B00076206730762068307620743076203A30AB
:1000C0007620080087306D2027088920253076208B
:1000D000C7306D202D088920080083120313880083
:1000E00009108914000089107F200800831203136F
:1000F000880009148914000089107F20080032301C
:10010000A400A40B81280800FF30A400A40B8628BB
:100110000800A000B201B301B40164302002031C46
:100120009428A000B20A8D280A302002031C9B28C4
:10013000A000B30A94282008B4003208303E76208C
:100140003308303E76203408303E762008002608FA
:10015000270203190800031CB028B320A7030800D6
:10016000B920A70A08000A30A300BF20A30BB528B6
:1001700008000A30A300C520A30BBB280800AC0A66
:100180000330AC05CB20D6200800AC030330AC050F
:10019000CB20D62008002C08D12083120313860020
:1001A0000800820701340234043408340F30A500FB
:1001B000FF30A400A40BDA28A50BD828080083126E
:1001C000031381309F0007211F151F19E528831293
:1001D00003131E0883120313AD00080083120313D8
:1001E00089309F0007211F151F19F428831203135C
:1001F0001E0883120313AE0003102E0CA6006430F9
:1002000026020318042908006430A60008003230D2
:10021000A000A00B092908008316031319309900C8
:100220002430980083120313903098000800831242
:1002300003131A08AF002F08013A031932292F08B7
:10024000023A031935292F08083A031938292F08CB
:10025000C039803A03193B292F08C039C03A031925
:100260003F290800003043210800260843210800E8
:100270002D08432108002F083F39B00008002F083F
:100280003F39A600080083160313981C45298312E2
:06029000031399000800B1
:02400E00723FFF
:00000001FF
