:020000040000FA
:020000001A28BC
:040002000034003492
:08000800A000030EA1000A088C
:10001000A20083120313831203130C18802083128F
:1000200003130B185E2122088A00210E8300A00E04
:10003000200E0900831203138501860187018801C0
:1000400089018316031311308500F030860080305B
:10005000870088018901831603138E309F00831265
:100060000313C1309F00831603136830810083128D
:1000700003138601060883120313313090007920A0
:10008000831203130C10831603130C14831203132F
:100090000B108B110B178B17831203131930A3004E
:1000A000A401A501A601A701A801A901AC01003086
:1000B000AA00AD01AB01B301B401B501472303248C
:1000C0003D21F3221024652183120313B308031981
:1000D0006B28B3013122831203132C1C72282C10BD
:1000E000BB203D2183120313AC1C7828AC1047239E
:1000F000612883120313CF308F002C308E0008004C
:10010000831203130C10792083120313A80A0A30F8
:100110002802031D0800A80183120313010883129B
:100120000313A70083120313810183120313AB0887
:1001300003199E28AB0383120313AC148312031319
:10014000A90A02302902031DB628A901831203134C
:10015000AB08031DB62883120313AA0A03302A0230
:10016000031DB328AA0183120313AC1483120313D3
:100170002C14AC140800831203131430BB000000CD
:10018000BB0BBF28831203131F151F19C528831625
:1001900003131E0883120313BB00831203131E08EC
:1001A00083120313BC00831203133B08BD003C08F9
:1001B000BE000310BD0DBE0D0310BD0DBE0D83129C
:1001C00003133B08A5003C08A6000310A60CA50CD1
:1001D0002E210310A60CA50C2E210310A60CA50C95
:1001E0002E21831203133B08A5003C08A60007300C
:1001F00083120313BB00031083120313A60CA50C78
:1002000083120313BB0BFB282E2183120313BC01A3
:10021000831203133E08031D13290A3083120313AC
:100220003D02031C20290A3083120313BD02031C64
:1002300083120313031CBE0383120313BC0A082991
:10024000831203133C08A500831203133D08831295
:100250000313A60083120313AC14080083120313C4
:10026000250883120313BD070318BE0A8312031364
:10027000260883120313BE07080083120313250800
:100280002302031D4E298312031326082402031D93
:10029000512983120313091089100800031C5929DE
:1002A0005429031C59295429831203130914891052
:1002B0000800831203130910891408008312031322
:1002C0000608831203130B10080083120313B308EC
:1002D000031D0800862183120313BB003B08FF3A6D
:1002E0000319822983120313B408031D0800013087
:1002F000B400831203133B08B200831203130130CE
:10030000B300080083120313B4010800831203131F
:100310000E308600BE21031DA1290D308600BE21AE
:10032000031DA5290B308600BE21031DAA29073015
:100330008600BE21031DAF29831203138601FF30FF
:1003400008003C08E421ED21B4293C08E421013EE9
:10035000ED21B4293C08E421023EED21B4293C08FA
:10036000E421033EED21B42983120313BD0083125F
:1003700003138601831203133D08080000000000E8
:10038000831203130608F039F03A031908008312A8
:100390000313061ED429861ED829061FDD298312C1
:1003A00003130330BC00E12983120313BC01E129CC
:1003B000831203130130BC00E129831203130230BE
:1003C000BC0001300038080083120313BD00031085
:1003D000BD0D0310BD0D3D08080083120313BB00C3
:1003E00000303B060319313401303B060319323427
:1003F00002303B060319333403303B060319413402
:1004000004303B060319343405303B0603193534F8
:1004100006303B060319363407303B0603194234D5
:1004200008303B060319373409303B0603193834CA
:100430000A303B06031939340B303B0603194334A9
:100440000C303B0603192A340D303B0603193034B7
:100450000E303B06031923340F303B060319443496
:10046000FF34831203133208413A0319512A8312CD
:100470000313B508031908003508013A03195B2A6C
:100480003508023A0319692A3508033A0319772A0D
:100490003508043A0319822A3508053A0319902AC7
:1004A0000800831203130130B50083120313B60151
:1004B000B701B80108008312031332089B22031806
:1004C000080083120313B600831203130230B50031
:1004D00008008312031332089B22031808008312BA
:1004E0000313B700831203130330B500080083120F
:1004F000031332082A3A031D080083120313043041
:10050000B50008008312031332089B220318080069
:1005100083120313B800831203130530B5000800DB
:10052000831203133208233A031D0800AE228312FC
:100530000313B501080083120313BB0030303B02E4
:10054000031CAC2A3A303B020318AC2A8312031373
:100550003B08D03E03100800031408008312031365
:100560003608BC003C08BD000310BD0D0310BD0DD6
:100570000310BD0D3C08BB000310BB0D3D08BB07BD
:10058000831203133708BB070A303B02031CEB2A14
:1005900033303B020318EB2A3B08323A031DD52ABD
:1005A00083120313B808031DEB2A831203133B08BD
:1005B000A30083120313380883120313A4008312C9
:1005C00003130030AA0083120313AD018312031337
:1005D000AC143D210800831203130230AB008312D8
:1005E0000313AC14080083120313071087100711BC
:1005F0008711831203132D080D2383120313880020
:10060000831203132D082A2383120313AD0A043027
:100610002D02031D0800AD010800BB00BB08031933
:100620001A2B01303B0603191E2B02303B0603191F
:10063000222B262B831203132E0808008312031388
:100640002F080800831203133008080083120313D5
:1006500031080800BB00BB080319372B01303B06EB
:1006600003193B2B02303B0603193F2B432B83120C
:10067000031307140800831203138714080083125E
:10068000031307150800831203138715080083124C
:100690000313AB080319572B831203137930AE00F1
:1006A0005030AF003F30B0005030B100080083122E
:1006B00003132A080319612B01302A020319632B43
:1006C000652B67230800822308009D2308008312FE
:1006D00003132308B5233B08D82383120313AE006A
:1006E0003C08D823803883120313AF00831203130E
:1006F0002408D82383120313B00039308312031364
:10070000B1000800831203132508B5233B08D82342
:1007100083120313AE003C08D823803883120313DE
:10072000AF00831203132608D82383120313B000EB
:10073000773083120313B1000800831203132708D4
:10074000C2233B08D82383120313AE003C08D823EE
:1007500083120313AF003D08D82383120313B000A4
:10076000713083120313B1000800BD00BB010A30D1
:100770003D02031CBF2B0A30BD02BB0AB72B3D084C
:10078000BC000800BE00BB01BC0164303E02031C7B
:10079000CD2B6430BE02BB0AC52B0A303E02031CBF
:1007A000D52B0A30BE02BC0ACD2B3E08BD00080086
:1007B00083120313BB00BB0803193F3401303B060F
:1007C0000319063402303B0603195B3403303B0641
:1007D00003194F3404303B060319663405303B06D9
:1007E00003196D3406303B0603197D3407303B0690
:1007F0000319073408303B0603197F3409303B06E0
:1008000003196F34003483160313193099008316CB
:1008100003132430980083120313903098000800CB
:100820008312031398181D2C831203138C1E0800C7
:10083000831203131A0822240800831203131812C8
:100840001816080083120313BB003B08013A031972
:100850009C2C3B08023A0319A12C3B08033A0319CC
:10086000A62C3B08043A0319AB2C3B08053A0319A4
:10087000B02CBB1F08003B083F3983120313BC0098
:100880003B1B4D2C831203133C0883120313BA0045
:10089000831203132C1558240800831203133C08F9
:1008A00083120313B90083120313AC1558240800F4
:1008B000831203132C1D0800AC1D08002C11AC1171
:1008C000831203130A303A0203188C2C8312031389
:1008D0000A303902031C8C2C323039020318712C77
:1008E0007C2C831203133908323A031D8C2C83129B
:1008F0000313BA08031D8C2C8312031339088312C7
:100900000313A300831203133A0883120313A400F2
:1009100083120313AC140800831203130230AB00DC
:1009200083120313AC140800831203130C1E942CBF
:1009300083120313990008008312031324089424DC
:10094000080083120313230894240800831203135E
:100950002608942408008312031325089424080011
:0A09600083120313270894240800F3
:02400E00323F3F
:00000001FF
